:100000000C942A000C943F000C943F000C943F0089
:100010000C943F000C943F000C943F000C943F0064
:100020000C943F000C943F000C943F000C943F0054
:100030000C943F000C943F000C943F000C943F0044
:100040000C943F000C943F000C943F000C943F0034
:100050000C943F0011241FBECFE5D8E0DEBFCDBF1A
:1000600010E0A0E6B0E0E4E1F3E002C005900D92FC
:10007000A63DB107D9F70E94D9000C9488010C94D1
:10008000000081B3806281BB82E88FBD8AE18EBDB2
:100090008FE39CE997BD86BD089588EE93E09BBDF4
:1000A0008ABD089588EB9BE09BBD8ABD089595B3FA
:1000B0009F70282F207F922B95BB95B39E7F95BB79
:1000C00095B3926095BB35E03A95F1F7000095B392
:1000D0009D7F95BB25B330E1839FC0011124922FF2
:1000E0009F70892B85BB85B3826085BB85E08A952F
:1000F000F1F7000085B38D7F85BB8FE39FE101970A
:10010000F1F700C00000089595B39F70282F207F5D
:10011000922B95BB95B3916095BB95B3926095BBBF
:1001200035E03A95F1F7000095B39D7F95BB25B377
:1001300030E1839FC0011124922F9F70892B85BBD2
:1001400085B3826085BB85E08A95F1F7000085B3B1
:100150008D7F85BB8FE39FE10197F1F700C0000021
:100160000895CF93DF93EC0103C021960E94840091
:1001700088818111FACFDF91CF9108958FEF84BBF1
:100180002FEF89EF90E0215080409040E1F700C0D0
:10019000000082E00E94570088E20E9457008CE035
:1001A0000E94570086E00E94570081E00E9457009D
:1001B000089581B38C7F81BB82B3836082BB0E9430
:1001C000BE000E9441000E94520081E00E94570040
:1001D00080E690E00E94B10080EC0E9457008CE61F
:1001E00090E00E94B1002FEF8DE399E42150804010
:1001F0009040E1F700C0000081E00E94570011E04C
:1002000081E005E0D0B3D170C0B3C270882371F132
:10021000D1112CC081E00E945700002399F00150B9
:1002200083E790E00E94B1000E944D002FEF83ED24
:1002300090E3215080409040E1F700C000000E9410
:10024000520014C080E890E00E94B10080EC0E944F
:1002500057008DE890E00E94B1002FEF83ED90E30E
:10026000215080409040E1F700C00000112371F15F
:10027000C1112CC081E00E945700053098F40F5F37
:1002800086E990E00E94B1000E944D002FEF83EDBF
:1002900090E3215080409040E1F700C000000E94B0
:1002A000520014C080EA90E00E94B10080EC0E94ED
:1002B00057008EEA90E00E94B1002FEF83ED90E3AB
:1002C000215080409040E1F700C0000080E80E948B
:1002D00057008BEB90E00E94B10080EC0E94570029
:1002E00088EC90E00E94B10080E3800F0E948400BF
:1002F0008FEC90E00E94B1002FEF82E597E0215053
:1003000080409040E1F700C000008D2F1C2F7ACF75
:04031000F894FFCF8F
:10031400436172205061726B696E67005379737424
:10032400656D0047617465204F70656E696E670086
:100334005061726B696E672046756C6C004E6F205D
:10034400456E74727900457869742047617465005C
:100354004E6F2043617220496E736964650045786D
:10036400697420496E76616C696400546F74616CC1
:100374003A20352020202000467265653A2000206E
:06038400202020200000F3
:00000001FF
